:0200000480007A
:100000009711000093818198138181C11385C1806C
:100010009385C1801386818163FCC500832205001E
:1000200023A055001305450093854500E3E8C5FE70
:1000300013858181938581816378B5002320050034
:1000400013054500E36CB5FEEF00400BEF00C00068
:080050006F0000006780000052
:10005800130101FF930710002326F10093072000E6
:100068002324F100930730002322F100B707001082
:100078001307F00F23A4E70023A2070083C7018119
:100088009387170093F7F70F2388F18083C70181BF
:1000980093F7F70F370701102320F7001307000025
:1000A8006F00C003370700108327470093871700A6
:1000B8002322F700130700006F004001B706011064
:1000C80083A7060093F7F70F23A0F600B7070110E0
:1000D80083A7470093D78701E39207FE930617008B
:1000E800B78701009387076AE30EF7FA13870600BC
:1000F8006FF0DFFD130101FF232481001387C18006
:100108001384C1803304E440232291002320210179
:100118002326110013542440930400001389C1803E
:10012800639E8402EFF09FF21387C1801384C1801D
:100138003304E44013542440930400001389C1801D
:10014800639A84028320C100032481008324410030
:10015800032901001301010167800000939724001F
:10016800B307F90083A7070093841400E78007000A
:100178006FF01FFB93972400B307F90083A70700CC
:0C01880093841400E78007006FF09FFBD9
:0C019400000000006200000000000000FD
:040000058000000077
:00000001FF
