:0200000480007A
:100000009711000093818197138181C1138501812C
:10001000938501811386818163FCC50083220500DD
:1000200023A055001305450093854500E3E8C5FE70
:1000300013858181938581816378B5002320050034
:1000400013054500E36CB5FEEF00000BEF00C000A8
:080050006F0000006780000052
:10005800130101FF930710002326F10093072000E6
:100068002324F100930730002322F100B707001082
:100078001307F00F23A4E70023A2070083C7018119
:100088009387170093F7F70F2388F18083C70181BF
:1000980093F7F70F370701102320F70093060000A6
:1000A8006F00C003370700108327470093871700A6
:1000B8002322F700930600006F0040013707011064
:1000C8008327070093F7F70F2320F700B7070110DE
:1000D80083A7470093D78701E39207FE138716008B
:1000E8009307803EE380F6FC930607006FF01FFE3F
:1000F800130101FF232481002322910093870181AA
:10010800138401813304F4402320210123261100A4
:10011800135424409384018113090000631E89024B
:10012800EFF0DFF293870181138401813304F440F7
:100138001354244093840181130900006318890231
:100148008320C10003248100832441000329010086
:10015800130101016780000083A704001309190037
:1001680093844400E78007006FF05FFB83A70400D7
:100178001309190093844400E78007006FF01FFCFF
:0801880062000000000000000D
:040000058000000077
:00000001FF
