:0200000480007A
:1000000097110000938181BF1381C1C217050000C1
:100010001305C53E970500009385453E1386018173
:1000200063FCC5008322050023A05500130545008D
:1000300093854500E3E8C5FE13850181938501831F
:100040006378B5002320050013054500E36CB5FE79
:10005000EF000030EF00C00A6F0000006780000072
:10006000B707011023A0A70067800000130101FF5C
:1000700023261100232481001304050003450400F6
:100080006308050013041400EFF09FFD6FF01FFFDD
:100090008320C10003248100130101016780000057
:1000A000130101FF23261100370500801305853F4A
:1000B000EFF0DFFB8320C100130101016780000026
:1000C000B707001023A20700B707011083A7470056
:1000D00093D78701638A0700B707011003A70700BA
:1000E00023A4E1826FF05FFEB7170080938707C0FB
:1000F00037310080930000006780070067800000B0
:10010000130101FF2326110023248100B7070010EB
:100110001307F00023A4E70023A2070003A747006A
:100120001367170023A2E70023A801806F00C018FF
:10013000EFF01FF9B707011083A7470093D7870196
:100140006390070693070400B706001003A7460054
:100150001367470023A2E60037470F001307072461
:100160006358F70003A746001367870023A2E60041
:100170001384170037470F001307F723E35CF7FAE0
:10018000B717008083A707C0371700001307F7FFD2
:10019000B3F7E70013077019E39EE7F86FF05FF914
:1001A000370700108327470093E727002322F70033
:1001B00083A701816380070C03A7018193071000C7
:1001C0006302F70CB707011083A7070093F7F70F37
:1001D00023A4F18283A7018263C4070C03A7818251
:1001E000930667FF9307300063F4D70E83A7C1819E
:1001F000939747009306000663D6E600130707FEB1
:1002000023A4E18203A781829306000463D8E60C4D
:10021000130797FCB3E7E70023AEF18083A70182C1
:100220009387170023A0F182130710006380E70C67
:1002300013073000638CE70E03A7818193065000FB
:1002400063DCE6066380E7106358F70613F71700D0
:100250006304070603A7418263D0E70683A6C18132
:1002600083A741811386170023AAC1802380D7006A
:100270006F008004EFF0DFE21307100023A8E18095
:100280006FF09FF31307F0FF23A0E1821307F00F35
:1002900023ACE1801307200023A8E1806FF09FF2D8
:1002A00083A7818213073005638CE7001307D00012
:1002B000638CE70023AE0180930700006FF0DFE856
:1002C00023A001826FF01FFF23A801806FF0DFFEE3
:1002D0001307100023A8E1806FF01FFE130707FD2E
:1002E000B3E7E70023AEF1806FF05FF383A7C1812E
:1002F000938797FF130720006376F70283A7C181D6
:10030000130730006348F70093971700938757004F
:1003100023ACF18023AE01801307200023A8E180E5
:100320006FF09FF9EFF0DFD96FF05FFD83A7C18118
:10033000939717009387270023A2F18223AE0180B1
:100340006FF09FF703A7C18123AAE1806FF0DFF66A
:10035000130101FFB70700802324810037040080C8
:100360001387873F1304843F3304E4402322910022
:10037000232021012326110013542440930400005C
:100380001389873F63928404EFF05FCDB707008045
:10039000370400801387873F1304843F3304E4400D
:1003A00013542440930400001389873F639A840206
:1003B0008320C1000324810083244100032901001C
:1003C000130101016780000093972400B307F9002F
:1003D00083A7070093841400E78007006FF09FFA5B
:1003E00093972400B307F90083A7070093841400B0
:0803F000E78007006FF09FFB9E
:1003F8000D0A727633323E20000000000000000033
:040000058000000077
:00000001FF
