:1080000097110000938181B1138101C11705000010
:1080100013054530970500009385C52F1386018110
:1080200063FAC5008322050023A0550011059105C0
:10803000E3EAC5FE13850181938501816377B5006D
:10804000232005001105E36DB5FEB12C192001A018
:0280500082802C
:10805200011122CC06CE26CA4AC84EC652C4856732
:10806200130740062398E700B70701103D4798C75A
:10807200216423A2070013044431034504000DEDDB
:10808200B7091D003704011037C90010938909DEB2
:108092005C40130A40068507BD8B5CC083274410F1
:1080A200E18391EF032789FF4E97832789FFB30767
:1080B200F740E3DC07FEE9BF0504E1287DBF832723
:1080C2004410E183EDDF8324041093F4F40F26853A
:1080D200C92093F7D40F639447071305F00355287B
:1080E200D547FD17C5DF0327441061831DCF639E6B
:1080F200440183274410E183EDDF032504101305B7
:1081020005FD1375F50FB92251BF83274410E18392
:10811200EDDF8324041093F4F40F26859D28138544
:1081220004FD1375F50F492095BF832689FFCE966E
:10813200032789FF3387E640E35C07FE5DB79307B9
:1081420070066396F4008967A843692081BF93078C
:1081520070076396F40089670947B8CB81B7930724
:1081620050066396F40089670947F8CB05BF930769
:108172002007E395F4F2856709472391E7068546D0
:108182002390D7062390D7062391E7062391E7068B
:1081920031B73707011083274710C18393F7F70FD1
:1081A200FDDB2320A7108280411122C406C6856709
:1081B20005472391E70621642390A70013040431A5
:1081C2000345040009E5B2402244410182800504CE
:1081D200C937FDB785670111938707A02316F10000
:1081E200896706CE22CC26CA4AC802C49387F77092
:1081F20063D3A7003E85F9779387178F2A84635349
:10820200F5003E843C00BE842947FD171DE8B38774
:10821200840083C70700130714009DCB1949B38755
:10822200840003C507000504130505031375F50F44
:108232008D37E31624FFF2406244D244424905617D
:108242008280B366E4023344E402A382D70075BF9E
:108252003A8475BF5D7186C6A2C4A6C28147130760
:10826200C0032390A7000505420589074181E39ACF
:10827200E7FE81471307C00303D60700B306F100E8
:1082820089072390C600E399E7FE0A846418035520
:10829200040009048137E31C94FEB6402644964448
:1082A20061618280411122C44AC017040000130494
:1082B2004406170900001309C9053309894006C697
:1082C20026C2135929406309090081441C408504D0
:1082D20011048297E31C99FE17040000130464033F
:1082E200170900001309E90233098940135929408B
:1082F2006309090081441C40850411048297E31C30
:0E83020099FEB2402244924402494101828019
:1083100020673E00696E7075742064342C66352CBD
:08832000672C772C652C72001C
:040000030000800079
:00000001FF
